:020000002928AD
:0E0006008312031349088A004808820008008C
:1000140003208A110A128000840AC80A0319C90A33
:08002400F003031D0A28080087
:10002C0083120313870188010B30FB002630FC0080
:10003C005D30FD00FD0B2028FC0B2028FB0B20283D
:06004C00000000000800A6
:100052007C21831603138701880116200130CA0010
:100062000030CB008030F00080304B067002031D60
:100072003C284A08643C031C6728CC01CD0180302F
:100082004D06F00080307002031D492808304C02F2
:10009200031863284C08383E8400000888004C0886
:1000A200403E8400000887000330FC009730FD00CA
:1000B200FD0B5928FC0B592800000000CC0A03193B
:1000C200CD0A4028CA0A0319CB0A33281620013068
:1000D200CA000030CB008030F00080304B06700246
:1000E200031D75284A08643C031CA028CC01CD01DD
:1000F20080304D06F00080307002031D82280830E7
:100102004C0203189C284C08383E840000088800E2
:100112004C08203E8400000887000330FC00973022
:10012200FD00FD0B9228FC0B922800000000CC0A77
:100132000319CD0A7928CA0A0319CB0A6C2816209A
:100142000130CA000030CB008030F00080304B0616
:100152007002031DAE284A08643C031CD928CC0156
:10016200CD0180304D06F00080307002031DBB28A7
:1001720008304C020318D5284C08383E8400000889
:1001820088004C08283E8400000887000330FC00E9
:100192009730FD00FD0BCB28FC0BCB2800000000A4
:1001A200CC0A0319CD0AB228CA0A0319CB0AA52818
:1001B20016200130CA000030CB008030F0008030C1
:1001C2004B067002031DE7284A08643C031C1229EF
:1001D200CC01CD0180304D06F00080307002031D4D
:1001E200F42808304C0203180E294C08383E8400CB
:1001F200000888004C08203E840000088700033075
:10020200FC009730FD00FD0B0429FC0B04290000C3
:100212000000CC0A0319CD0AEB28CA0A0319CB0A3B
:10022200DE2816200130CA000030CB008030F000FA
:1002320080304B067002031D20294A08643C031CCF
:100242004B29CC01CD0180304D06F0008030700288
:10025200031D2D2908304C02031847294C08383E4B
:100262008400000888004C08303E840000088700A3
:100272000330FC009730FD00FD0B3D29FC0B3D29AE
:1002820000000000CC0A0319CD0A2429CA0A031966
:0A029200CB0A172916202E284D294B
:1002F80020308400283083120313F0005330C800E4
:080308000130C9000A200800C1
:1002A60000347F34FF34CC34CC34FF347F34003414
:1002B600FF34FF341834183418341834FF34FF343C
:1002C600C034C034C034FF34FF34C034C034C0340A
:1002D6008034403420341034083404340234013479
:1002E6000034FF34FF34CC34CC34FF347B34003458
:02400E004A2F37
:00000001FF
